:100000000C942A000C9447000C9447000C94470071
:100010000C9447000C9447000C9447000C94470044
:100020000C9447000C9447000C9447000C94470034
:100030000C9447000C9447000C9447000C94470024
:100040000C9447000C9447000C9447000C94470014
:100050000C94470011241FBECFE5D8E0DEBFCDBF12
:1000600012E0A0E6B0E0E2E7FAE102C005900D92EE
:10007000A633B107D9F712E0A6E3B2E001C01D92A2
:10008000A733B107E1F70E940F0A0C94370D0C94C7
:100090000000EF92FF920F931F937B018C0120E0F1
:1000A00030E040E05FE40E94490388238CF0C801FF
:1000B000B70120E030E040E05FE40E94C1010E940F
:1000C000A9039B01AC01205030404040504806C07D
:1000D000C801B7010E94A9039B01AC01B901CA0183
:1000E0001F910F91FF90EF900895A0E0B0E0EBE733
:1000F000F0E00C94000DDC012B01FA019C91923090
:1001000008F439C1EB018881823008F433C194309E
:1001100069F4843009F02FC111969C91119789815F
:10012000981709F428C1ADE2B2E025C1843009F482
:1001300021C18230A9F4923009F01DC19A01AD01AC
:1001400088E0EA010990AE01E90109929E0181501F
:10015000C1F7E201898111969C918923818308C1AD
:10016000923009F407C112962D903C901397EB0141
:100170008A819B811496AD90BD90CD90DC901797AD
:10018000EC80FD800E811F819101281B390BB90184
:1001900037FF04C066277727621B730B6032710537
:1001A0000CF061C0121613066CF537014801062EDB
:1001B00004C096948794779467940A94D2F721E0C8
:1001C00030E040E050E004C0220F331F441F551FB1
:1001D0006A95D2F721503040404050402E213F21B7
:1001E00040235123211531054105510521F021E01E
:1001F00030E040E050E079018A01E628F72808293C
:1002000019293CC0232BD1F1260E371E350146019A
:10021000062E04C096948794779467940A94D2F734
:1002200021E030E040E050E004C0220F331F441FC3
:10023000551F6A95D2F721503040404050402A2146
:100240003B214C215D21211531054105510521F04E
:1002500021E030E040E050E059016A01A628B728CB
:10026000C828D9280BC0821593052CF01C01AA249C
:10027000BB24650103C0EE24FF24870111969C91E5
:10028000D20111968C91981709F445C0992339F041
:10029000A80197012A193B094C095D0906C0A6016E
:1002A00095012E193F09400B510B57FD08C01182D3
:1002B0003382228224833583468357831DC081E0A5
:1002C00081833382228288279927DC01821B930B4A
:1002D000A40BB50B84839583A683B7830DC0220F2F
:1002E000331F441F551F24833583468357838281E0
:1002F000938101979383828324813581468157813D
:10030000DA01C9010197A109B1098F5F9F4FAF4F72
:10031000BF4328F30BC0918333822282EA0CFB1C7B
:100320000C1D1D1DE482F5820683178383E0808304
:10033000248135814681578157FF1AC0C901AA27F8
:1003400097FDA095BA2F81709070A070B0705695EF
:10035000479537952795822B932BA42BB52B848318
:100360009583A683B7838281938101969383828349
:10037000DF0101C0D201CD01CDB7DEB7E2E10C94BF
:100380001C0DA0E2B0E0E7ECF1E00C940C0D6983E9
:100390007A838B839C832D833E834F835887E9E048
:1003A000EE2EF12CEC0EFD1ECE010196B7010E943F
:1003B000D2048E010F5E1F4FCE010596B8010E9438
:1003C000D2048A8991E089278A8BC701B801AE01DE
:1003D000475E5F4F0E9475000E94FD03A096E6E015
:1003E0000C94280DA0E2B0E0E8EFF1E00C940C0DC5
:1003F00069837A838B839C832D833E834F835887C5
:10040000F9E0EF2EF12CEC0EFD1ECE010196B701A6
:100410000E94D2048E010F5E1F4FCE010596B801D7
:100420000E94D204C701B801AE01475E5F4F0E942F
:1004300075000E94FD03A096E6E00C94280DA0E252
:10044000B0E0E5E2F2E00C94000D69837A838B83DF
:100450009C832D833E834F835887CE010196BE0136
:10046000675F7F4F0E94D204CE010596BE016F5E8A
:100470007F4F0E94D2049985923088F0898982301A
:10048000C8F0943019F4823051F404C0843029F457
:10049000923081F48DE292E0C6C0923049F420E0BF
:1004A0009A858A89981321E02A87CE010996BBC0D4
:1004B000823049F420E09A858A89981321E02A8BBA
:1004C000CE014196B0C02D843E844F8458886D88FB
:1004D0007E888F88988CEE24FF248701AA24BB2471
:1004E000650140E050E060E070E0E0E0F0E0C10174
:1004F00081709070892BE9F0E60CF71C081D191D1E
:100500009A01AB012A0D3B1D4C1D5D1D80E090E062
:10051000A0E0B0E0E614F7040805190520F481E036
:1005200090E0A0E0B0E0BA01A901480F591F6A1F8E
:100530007B1FAA0CBB1CCC1CDD1C97FE08C081E0F5
:1005400090E0A0E0B0E0A82AB92ACA2ADB2A3196B6
:10055000E032F10549F0660C771C881C991C569412
:10056000479437942794C3CFFA85EA892B893C892D
:100570008B859C85280F391F2E5F3F4F17C0CA01FE
:1005800081709070892B61F016950795F794E79428
:1005900080E090E0A0E0B0E8E82AF92A0A2B1B2BC3
:1005A00076956795579547952F5F3F4F77FDE7CF36
:1005B0000CC0440F551F661F771F17FD4160EE0CDE
:1005C000FF1C001F111F21503040403090E05907A0
:1005D00090E0690790E4790760F32B8F3C8FDB0193
:1005E000CA018F779070A070B07080349105A1051A
:1005F000B10561F447FD0AC0E114F10401051105DC
:1006000029F0405C5F4F6F4F7F4F40781A8EFE1786
:1006100011F081E08A8F4D8F5E8F6F8F78A383E01A
:10062000898FCE0149960E94FD03A096E2E10C94C9
:100630001C0DA8E1B0E0EFE1F3E00C940C0D698330
:100640007A838B839C832D833E834F83588789E0F5
:10065000E82EF12CEC0EFD1ECE010196B7010E9492
:10066000D2048E010F5E1F4FCE010596B8010E9485
:10067000D2048985823040F08989823028F0C70110
:10068000B8010E944A0501C08FEF6896E6E00C941D
:10069000280DA8E1B0E0EFE4F3E00C940C0D6983C1
:1006A0007A838B839C832D833E834F83588789E095
:1006B000E82EF12CEC0EFD1ECE010196B7010E9432
:1006C000D2048E010F5E1F4FCE010596B8010E9425
:1006D000D2048985823040F08989823028F0C701B0
:1006E000B8010E944A0501C08FEF6896E6E00C94BD
:1006F000280DA8E1B0E0EFE7F3E00C940C0D69835E
:100700007A838B839C832D833E834F83588789E034
:10071000E82EF12CEC0EFD1ECE010196B7010E94D1
:10072000D2048E010F5E1F4FCE010596B8010E94C4
:10073000D2048985823040F08989823028F0C7014F
:10074000B8010E944A0501C081E06896E6E00C9479
:10075000280DACE0B0E0EFEAF3E00C94100D6983F3
:100760007A838B839C83CE010196BE016B5F7F4FA2
:100770000E94D2048D81823061F1823050F1843048
:1007800021F48E81882351F12EC02F81388537FDC9
:1007900020C06E812F3131051CF06623F9F023C093
:1007A0008EE190E0821B930B29853A854B855C8511
:1007B00004C056954795379527958A95D2F76623B5
:1007C000B1F050954095309521953F4F4F4F5F4F79
:1007D0000EC020E030E040E050E009C02FEF3FEFD6
:1007E0004FEF5FE704C020E030E040E050E8B9019F
:1007F000CA012C96E2E00C942C0DDF92EF92FF924E
:100800000F931F93FC01E480F58006811781D1804E
:100810008081823048F480E090E0A0E1B0E0E82AF6
:10082000F92A0A2B1B2BA5C0843009F49FC0823003
:1008300021F4EE24FF24870105C0E114F104010531
:10084000110519F4E0E0F0E096C0628173819FEF3A
:10085000623879070CF05BC022E83FEF261B370BAC
:100860002A3131052CF020E030E040E050E02AC091
:10087000B801A701022E04C0769567955795479554
:100880000A94D2F781E090E0A0E0B0E004C0880FC5
:10089000991FAA1FBB1F2A95D2F70197A109B10979
:1008A0008E219F21A023B1230097A105B10521F03E
:1008B00081E090E0A0E0B0E09A01AB01282B392B59
:1008C0004A2B5B2BDA01C9018F779070A070B07052
:1008D00080349105A105B10539F427FF09C0205CDA
:1008E0003F4F4F4F5F4F04C0215C3F4F4F4F5F4F13
:1008F000E0E0F0E02030A0E03A07A0E04A07A0E402
:100900005A0710F0E1E0F0E079018A0127C0603871
:10091000710564F5FB01E158FF4FD801C7018F77DE
:100920009070A070B07080349105A105B10539F4C4
:10093000E7FE0DC080E490E0A0E0B0E004C08FE3EB
:1009400090E0A0E0B0E0E80EF91E0A1F1B1F17FFA1
:1009500005C016950795F794E794319687E01695AC
:100960000795F794E7948A95D1F705C0EE24FF2404
:100970008701EFEFF0E06E2F679566276795902F60
:100980009F77D794DD24D7948E2F8695492F462BB9
:10099000582F5D29B701CA011F910F91FF90EF9069
:1009A000DF900895FC01DB01408151812281622F9B
:1009B0006F7770E0221F2227221F9381892F880FD3
:1009C000822B282F30E0991F9927991F11969C930D
:1009D000119721153105A9F54115510561057105DD
:1009E00011F482E037C082E89FEF13969C938E93B8
:1009F00012979A01AB0167E0220F331F441F551F66
:100A00006A95D1F783E08C930DC0220F331F441FEA
:100A1000551F12968D919C911397019713969C9355
:100A20008E931297203080E0380780E0480780E4FA
:100A3000580758F314962D933D934D935C93179755
:100A400008952F3F310579F4411551056105710570
:100A500019F484E08C93089564FF03C081E08C93C3
:100A600012C01C9210C02F57304013963C932E9307
:100A7000129783E08C9387E0440F551F661F771F02
:100A80008A95D1F7706414964D935D936D937C9322
:100A9000179708951F93DC01FB019C91923008F495
:100AA00047C08081823008F443C0943051F41196DD
:100AB0001C91843099F58181682F70E0611B710968
:100AC0003FC0843021F0923031F48230B9F181811D
:100AD000882389F12DC011961C9111978230F1F075
:100AE00081811817D9F412962D913C911397828128
:100AF00093818217930794F028173907BCF0149656
:100B00008D919D910D90BC91A02D248135814681C0
:100B10005781281739074A075B0718F4112341F05A
:100B20000AC082179307A407B50740F4112319F0F0
:100B300061E070E005C06FEF7FEF02C060E070E041
:100B4000CB011F910895DF93CF9300D0CDB7DEB7CF
:100B50001A8283E38983AAE2B0E0EAE2F0E08081CE
:100B600080618C93AAE2B0E0EAE2F0E080818860E4
:100B70008C93AAE2B0E0EAE2F0E080818B7F8C9374
:100B8000AAE2B0E0EAE2F0E080818F7D8C93AAE2F5
:100B9000B0E0EAE2F0E080818F7B8C93AAE2B0E0E3
:100BA000EAE2F0E080818F778C938A8180688A8383
:100BB0008A8184608A838A8182608A838A81877F2E
:100BC0008A838A818F7E8A838A818F7D8A838A81C4
:100BD0008F7B8A83E0E4F0E08A818083E9E2F0E0C1
:100BE00083E380830F900F90CF91DF910895DF937F
:100BF000CF930F92CDB7DEB78983EBE2F0E080812F
:100C0000829586958770882F90E08170907000970C
:100C1000A1F3ECE2F0E0898180830F90CF91DF9126
:100C20000895DF93CF93CDB7DEB7EBE2F0E080819C
:100C30008823DCF7ECE2F0E08081CF91DF9108952A
:100C4000DF93CF9300D00F92CDB7DEB79B838A831B
:100C500019820EC08981282F30E08A819B81FC0196
:100C6000E20FF31F80810E94F70589818F5F8983DE
:100C70008981282F30E08A819B81FC01E20FF31FDC
:100C80008081882339F70F900F900F90CF91DF91DB
:100C90000895DF93CF9300D000D0CDB7DEB789831E
:100CA0006A838981282F30E03C832B838B819C8150
:100CB00082309105D9F02B813C812330310534F409
:100CC0008B819C818130910561F01EC02B813C811C
:100CD0002330310581F08B819C818430910581F036
:100CE00013C0EAE3F0E08A8180830EC0E7E3F0E01E
:100CF0008A81808309C0E4E3F0E08A81808304C0B4
:100D0000E1E3F0E08A8180830F900F900F900F90C5
:100D1000CF91DF910895DF93CF9300D000D0CDB76E
:100D2000DEB789836A838981282F30E03C832B8357
:100D30008B819C8182309105D9F02B813C812330BD
:100D4000310534F48B819C818130910561F01EC0A6
:100D50002B813C812330310581F08B819C81843053
:100D6000910581F013C0EBE3F0E08A8180830EC02F
:100D7000E8E3F0E08A81808309C0E5E3F0E08A815E
:100D8000808304C0E2E3F0E08A8180830F900F90BB
:100D90000F900F90CF91DF910895DF93CF9300D004
:100DA00000D0CDB7DEB78A8319828A81282F30E040
:100DB0003C832B838B819C8182309105D9F02B81E0
:100DC0003C812330310534F48B819C818130910545
:100DD00061F01EC02B813C812330310581F08B8175
:100DE0009C818430910581F013C0E9E3F0E08081BB
:100DF00089830EC0E6E3F0E08081898309C0E3E3E4
:100E0000F0E08081898304C0E0E3F0E080818983A1
:100E100089810F900F900F900F90CF91DF910895DF
:100E2000DF93CF93CDB7DEB727970FB6F894DEBF29
:100E30000FBECDBF89836A834B838B81813009F0DC
:100E400070C08981282F30E03F832E838E819F815F
:100E50008230910551F12E813F812330310534F4E8
:100E60008E819F818130910561F0D3C02E813F81B9
:100E70002330310571F18E819F8184309105E9F134
:100E8000C8C0AAE3B0E0EAE3F0E08081482F8A819D
:100E9000282F30E081E090E0022E02C0880F991FD9
:100EA0000A94E2F7842B8C93B4C0A7E3B0E0E7E3A5
:100EB000F0E08081482F8A81282F30E081E090E0A7
:100EC000022E02C0880F991F0A94E2F7842B8C939C
:100ED000A0C0A4E3B0E0E4E3F0E08081482F8A8181
:100EE000282F30E081E090E0022E02C0880F991F89
:100EF0000A94E2F7842B8C938CC0A1E3B0E0E1E389
:100F0000F0E08081482F8A81282F30E081E090E056
:100F1000022E02C0880F991F0A94E2F7842B8C934B
:100F200078C08B81882309F074C08981282F30E034
:100F30003D832C838C819D818230910561F12C81D0
:100F40003D812330310534F48C819D8181309105C0
:100F500069F05FC02C813D812330310589F18C819E
:100F60009D818430910509F440C053C0AAE3B0E0EC
:100F7000EAE3F0E08081482F8A81282F30E081E089
:100F800090E0022E02C0880F991F0A94E2F7809524
:100F900084238C933EC0A7E3B0E0E7E3F0E08081D8
:100FA000482F8A81282F30E081E090E0022E02C095
:100FB000880F991F0A94E2F7809584238C9329C0A7
:100FC000A4E3B0E0E4E3F0E08081482F8A81282F99
:100FD00030E081E090E0022E02C0880F991F0A9451
:100FE000E2F7809584238C9314C0A1E3B0E0E1E3A1
:100FF000F0E08081482F8A81282F30E081E090E066
:10100000022E02C0880F991F0A94E2F7809584236C
:101010008C9327960FB6F894DEBF0FBECDBFCF914D
:10102000DF910895DF93CF93CDB7DEB727970FB643
:10103000F894DEBF0FBECDBF89836A834B838B815B
:10104000813009F070C08981282F30E03F832E83E2
:101050008E819F818230910551F12E813F81233015
:10106000310534F48E819F818130910561F0D3C0C8
:101070002E813F812330310571F18E819F81843033
:101080009105E9F1C8C0ABE3B0E0EBE3F0E08081AB
:10109000482F8A81282F30E081E090E0022E02C0A4
:1010A000880F991F0A94E2F7842B8C93B4C0A8E3AD
:1010B000B0E0E8E3F0E08081482F8A81282F30E01B
:1010C00081E090E0022E02C0880F991F0A94E2F797
:1010D000842B8C93A0C0A5E3B0E0E5E3F0E0808131
:1010E000482F8A81282F30E081E090E0022E02C054
:1010F000880F991F0A94E2F7842B8C938CC0A2E38B
:10110000B0E0E2E3F0E08081482F8A81282F30E0D0
:1011100081E090E0022E02C0880F991F0A94E2F746
:10112000842B8C9378C08B81882309F074C08981CB
:10113000282F30E03D832C838C819D818230910566
:1011400061F12C813D812330310534F48C819D8106
:101150008130910569F05FC02C813D8123303105DC
:1011600089F18C819D818430910509F440C053C080
:10117000ABE3B0E0EBE3F0E08081482F8A81282FD9
:1011800030E081E090E0022E02C0880F991F0A949F
:10119000E2F7809584238C933EC0A8E3B0E0E8E3B7
:1011A000F0E08081482F8A81282F30E081E090E0B4
:1011B000022E02C0880F991F0A94E2F780958423BB
:1011C0008C9329C0A5E3B0E0E5E3F0E08081482FEF
:1011D0008A81282F30E081E090E0022E02C0880F43
:1011E000991F0A94E2F7809584238C9314C0A2E39C
:1011F000B0E0E2E3F0E08081482F8A81282F30E0E0
:1012000081E090E0022E02C0880F991F0A94E2F755
:10121000809584238C9327960FB6F894DEBF0FBE7B
:10122000CDBFCF91DF910895DF93CF9300D000D051
:101230000F92CDB7DEB78A836B8319828A81282FFC
:1012400030E03D832C834C815D814230510541F17A
:101250008C819D818330910534F42C813D81213036
:10126000310561F052C04C815D814330510551F12F
:101270008C819D8184309105B9F147C0E9E3F0E0AC
:101280008081282F30E08B81882F90E0A90102C057
:10129000559547958A95E2F7CA018170898335C0D3
:1012A000E6E3F0E08081282F30E08B81882F90E00A
:1012B000A90102C0559547958A95E2F7CA01817048
:1012C000898323C0E3E3F0E08081282F30E08B8125
:1012D000882F90E0A90102C0559547958A95E2F7BD
:1012E000CA018170898311C0E0E3F0E08081282F7A
:1012F00030E08B81882F90E0A90102C05595479579
:101300008A95E2F7CA018170898389810F900F90D5
:101310000F900F900F90CF91DF910895DF93CF93AF
:10132000CDB7DEB781E060E041E00E94100781E0C8
:1013300061E041E00E94100781E062E041E00E942C
:10134000100781E063E041E00E94100781E064E063
:1013500041E00E94100781E064E041E00E94120831
:10136000CF91DF910895DF93CF93CDB7DEB781E0C2
:1013700060E041E00E94120881E061E041E00E94EB
:10138000120881E062E041E00E941208CF91DF91F3
:101390000895DF93CF93CDB7DEB781E060E040E002
:1013A0000E94120881E061E040E00E94120881E0A2
:1013B00062E040E00E941208CF91DF910895DF9330
:1013C000CF93CDB7DEB781E063E041E00E94120821
:1013D000CF91DF910895DF93CF93CDB7DEB781E052
:1013E00063E040E00E941208CF91DF910895DF93FF
:1013F000CF93CDB7DEB781E064E040E00E941208F1
:10140000CF91DF910895DF93CF93CDB7DEB781E021
:1014100064E041E00E941208CF91DF910895DF93CC
:10142000CF93CDB7DEB7EE970FB6F894DEBF0FBE01
:10143000CDBF0E94A3050E948E0980E690E00E9425
:10144000200680E090E0AAEFB3E48DAB9EABAFAB9B
:10145000B8AF6DA97EA98FA998AD20E030E04AEF22
:1014600054E40E941F02DC01CB0189AB9AABABAB09
:10147000BCAB69A97AA98BA99CA920E030E040E81F
:101480005FE30E94790388232CF481E090E098AB1D
:101490008FA73FC069A97AA98BA99CA920E03FEF3B
:1014A0004FE757E40E94190318164CF56DA97EA961
:1014B0008FA998AD20E030E040E251E40E941F0285
:1014C000DC01CB01BC01CD010E944900DC01CB0154
:1014D00098AB8FA70FC088EC90E09EA78DA78DA535
:1014E0009EA50197F1F79EA78DA78FA598A90197B3
:1014F00098AB8FA78FA598A9009769F714C069A921
:101500007AA98BA99CA90E944900DC01CB0198AB68
:101510008FA78FA598A99CA78BA78BA59CA50197A2
:10152000F1F79CA78BA780913602833008F091C019
:1015300087E790E00E9420060E9411068AAF8AADDC
:10154000282F30E03EAF2DAF8DAD9EAD8D3691058D
:1015500009F448C02DAD3EAD2E363105ECF48DAD0D
:101560009EAD8536910509F44CC02DAD3EAD2636B5
:10157000310534F48DAD9EAD81369105C1F15FC06A
:101580002DAD3EAD29363105B9F18DAD9EAD8B3611
:10159000910509F440C053C02DAD3EAD243731054F
:1015A00009F443C08DAD9EAD853791055CF42DAD3A
:1015B0003EAD2E36310551F18DAD9EAD8F36910584
:1015C00079F13DC02DAD3EAD2937310531F08DADFE
:1015D0009EAD8A37910571F132C088E890E00E9493
:1015E0002006B4C089E990E00E942006AFC08AEAD4
:1015F00090E00E942006AAC089EB90E00E9420069D
:10160000A5C088EC90E00E942006A0C086ED90E086
:101610000E9420069BC084EE90E00E94200696C0A7
:1016200083EF90E00E94200691C081E091E00E944B
:1016300020068CC080E191E00E94200687C08EE1E8
:1016400091E00E942006809136028F5F80933602DF
:101650006ACF0E94DF0989E291E00E94200680E0C3
:1016600090E8ABEBB4E48FA398A7A9A7BAA76FA1A2
:1016700078A589A59AA520E030E04AEF54E40E94BD
:101680001F02DC01CB018BA39CA3ADA3BEA36BA166
:101690007CA18DA19EA120E030E040E85FE30E94A4
:1016A000790388232CF481E090E09AA389A33FC0BA
:1016B0006BA17CA18DA19EA120E03FEF4FE757E4F5
:1016C0000E94190318164CF56FA178A589A59AA553
:1016D00020E030E040E251E40E941F02DC01CB0137
:1016E000BC01CD010E944900DC01CB019AA389A372
:1016F0000FC088EC90E098A38F8F8F8D98A10197F1
:10170000F1F798A38F8F89A19AA101979AA389A332
:1017100089A19AA1009769F714C06BA17CA18DA142
:101720009EA10E944900DC01CB019AA389A389A153
:101730009AA19E8F8D8F8D8D9E8D0197F1F79E8F33
:101740008D8F0E94EB0910923602EDCE83E491E07A
:101750000E94200680E090E0A0E2B1E4898F9A8F99
:10176000AB8FBC8F698D7A8D8B8D9C8D20E030E0A6
:101770004AEF54E40E941F02DC01CB018D8B9E8B4B
:10178000AF8BB88F6D897E898F89988D20E030E08E
:1017900040E85FE30E94790388232CF481E090E025
:1017A0009C8B8B8B3FC06D897E898F89988D20E0C3
:1017B0003FEF4FE757E40E94190318164CF5698D67
:1017C0007A8D8B8D9C8D20E030E040E251E40E94C8
:1017D0001F02DC01CB01BC01CD010E944900DC01EC
:1017E000CB019C8B8B8B0FC088EC90E09A8B898B04
:1017F00089899A890197F1F79A8B898B8B899C89C2
:1018000001979C8B8B8B8B899C89009769F714C0FF
:101810006D897E898F89988D0E944900DC01CB01FA
:101820009C8B8B8B8B899C89988B8F878F859889D4
:101830000197F1F7988B8F878FE691E00E94200641
:1018400080E090E0A0E2B1E48B879C87AD87BE8703
:101850006B857C858D859E8520E030E04AEF54E4E1
:101860000E941F02DC01CB018F839887A987BA876A
:101870006F81788589859A8520E030E040E85FE3D4
:101880000E94790388232CF481E090E09E838D836D
:101890003FC06F81788589859A8520E03FEF4FE7CB
:1018A00057E40E94190318164CF56B857C858D85CD
:1018B0009E8520E030E040E251E40E941F02DC01FE
:1018C000CB01BC01CD010E944900DC01CB019E830C
:1018D0008D830FC088EC90E09C838B838B819C81EF
:1018E0000197F1F79C838B838D819E8101979E8365
:1018F0008D838D819E81009769F714C06F817885F3
:1019000089859A850E944900DC01CB019E838D83E5
:101910008D819E819A83898389819A810197F1F7CC
:101920009A83898383E991E00E94200686EA91E008
:101930000E94200684EB91E00E94200688EC91E052
:101940000E94200687ED91E00E94200680EE91E043
:101950000E9420060E94110689AF89AD282F30E031
:101960003CAF2BAF8BAD9CAD8333910549F12BADD3
:101970003CAD243331055CF48BAD9CAD81339105D6
:1019800089F02BAD3CAD2233310599F034C08BADDD
:101990009CAD84339105D9F02BAD3CAD2533310599
:1019A000E9F029C082EE91E00E9420060E94B3096E
:1019B000CDCE8DEE91E00E9420060E94F709C6CEA2
:1019C0008BEF91E00E9420060E94C909BFCE87E0FC
:1019D00092E00E9420060E94030AB8CE87E192E0BE
:1019E0000E942006EE960FB6F894DEBF0FBECDBF64
:1019F000CF91DF9108958DE192E00E942006A6CE5E
:101A00002F923F924F925F926F927F928F929F920E
:101A1000AF92BF92CF92DF92EF92FF920F931F93FC
:101A2000CF93DF93CDB7DEB7CA1BDB0B0FB6F894AD
:101A3000DEBF0FBECDBF09942A88398848885F84ED
:101A40006E847D848C849B84AA84B984C884DF805E
:101A5000EE80FD800C811B81AA81B981CE0FD11D42
:101A60000FB6F894DEBF0FBECDBFED010895F89418
:021A7000FFCFA6
:101A720057656C636F6D6520746F20536D6172746E
:101A820020486F6D650A00456E7465722055736556
:101A9200726E616D653A200057656C636F6D6520EB
:101AA200796F75737365660A0057656C636F6D6550
:101AB200206D6F68616D65640A0057656C636F6DB8
:101AC200652061686D65640A0057656C636F6D65BA
:101AD2002069736C616D0A0057656C636F6D6520D8
:101AE200656D61640A0057656C636F6D65206E6F8A
:101AF20075720A0057656C636F6D65206B61726960
:101B02006D0A0057656C636F6D65206F6D61720AB7
:101B12000057656C636F6D652074616D65720A00B4
:101B220057656C636F6D65207A6961640A0054724F
:101B32007920416761696E0A00536F727279205988
:101B42006F75204661696C656420332054696D6548
:101B5200730A0057656C636F6D6520746F20796F2F
:101B62007572204D6F62696C6520436F6E74726F7F
:101B72006C6C656420486F6D652121210A0A005052
:101B820069636B204F6E65206F662074686520461E
:101B92006F6C6C6F77696E67204F7074696F6E73CC
:101BA2003A0A00312E205475726E204F6E204C6915
:101BB200676874730A00322E204F70656E20446F7E
:101BC2006F720A00332E205475726E204F666620A3
:101BD2004C69676874730A00342E20436C6F736516
:101BE20020446F6F720A00352E20457869740A000E
:101BF2000A004C6967687473204F6E0A00446F6F65
:101C020072206973204F70656E0A004C69676874B0
:101C120073204F66660A00446F6F72206973204317
:101C22006C6F7365640A00457869740A00496E76C0
:101C3200616C6964206F7074696F6E0A0000000045
:061C42000000000000009C
:00000001FF
